{
  "_format": "hh-sol-artifact-1",
  "contractName": "Main",
  "sourceName": "src/ethereum-hardhat/contracts/Main.sol",
  "abi": [
    {
      "inputs": [],
      "stateMutability": "nonpayable",
      "type": "constructor"
    },
    {
      "inputs": [
        {
          "internalType": "address",
          "name": "account",
          "type": "address"
        }
      ],
      "name": "balanceAccount",
      "outputs": [
        {
          "internalType": "uint256",
          "name": "",
          "type": "uint256"
        }
      ],
      "stateMutability": "view",
      "type": "function"
    },
    {
      "inputs": [
        {
          "internalType": "address",
          "name": "client",
          "type": "address"
        },
        {
          "internalType": "uint256",
          "name": "amount",
          "type": "uint256"
        }
      ],
      "name": "buyTokens",
      "outputs": [],
      "stateMutability": "payable",
      "type": "function"
    },
    {
      "inputs": [
        {
          "internalType": "uint256",
          "name": "amount",
          "type": "uint256"
        }
      ],
      "name": "generateTokens",
      "outputs": [],
      "stateMutability": "nonpayable",
      "type": "function"
    },
    {
      "inputs": [],
      "name": "getContractAddress",
      "outputs": [
        {
          "internalType": "address",
          "name": "",
          "type": "address"
        }
      ],
      "stateMutability": "view",
      "type": "function"
    },
    {
      "inputs": [],
      "name": "getTotalSupply",
      "outputs": [
        {
          "internalType": "uint256",
          "name": "",
          "type": "uint256"
        }
      ],
      "stateMutability": "view",
      "type": "function"
    },
    {
      "inputs": [
        {
          "internalType": "uint256",
          "name": "numTokens",
          "type": "uint256"
        }
      ],
      "name": "priceToken",
      "outputs": [
        {
          "internalType": "uint256",
          "name": "",
          "type": "uint256"
        }
      ],
      "stateMutability": "nonpayable",
      "type": "function"
    }
  ],
  "bytecode": "0x608060405234801561001057600080fd5b5060405161001d90610109565b61002690610139565b604051809103906000f080158015610042573d6000803e3d6000fd5b506000806101000a81548173ffffffffffffffffffffffffffffffffffffffff021916908373ffffffffffffffffffffffffffffffffffffffff16021790555033600160006101000a81548173ffffffffffffffffffffffffffffffffffffffff021916908373ffffffffffffffffffffffffffffffffffffffff16021790555030600260006101000a81548173ffffffffffffffffffffffffffffffffffffffff021916908373ffffffffffffffffffffffffffffffffffffffff1602179055506101a6565b6115cf80610a7f83390190565b600061012360038361016c565b915061012e8261017d565b602082019050919050565b6000604082019050818103600083015261015281610116565b9050818103602083015261016581610116565b9050919050565b600082825260208201905092915050565b7f474f4c0000000000000000000000000000000000000000000000000000000000600082015250565b6108ca806101b56000396000f3fe6080604052600436106100555760003560e01c80630752881a1461005a57806332a2c5d0146100765780635b7c4360146100a1578063c4e41b22146100de578063ca01ba3914610109578063e9c35f9d14610132575b600080fd5b610074600480360381019061006f9190610599565b61016f565b005b34801561008257600080fd5b5061008b6102ca565b6040516100989190610691565b60405180910390f35b3480156100ad57600080fd5b506100c860048036038101906100c39190610570565b6102f4565b6040516100d591906106f5565b60405180910390f35b3480156100ea57600080fd5b506100f36103a7565b60405161010091906106f5565b60405180910390f35b34801561011557600080fd5b50610130600480360381019061012b91906105fe565b61044d565b005b34801561013e57600080fd5b50610159600480360381019061015491906105fe565b6104ff565b60405161016691906106f5565b60405180910390f35b600061017a826104ff565b9050803410156101bf576040517f08c379a00000000000000000000000000000000000000000000000000000000081526004016101b6906106d5565b60405180910390fd5b600081346101cd919061077b565b90503373ffffffffffffffffffffffffffffffffffffffff166108fc829081150290604051600060405180830381858888f19350505050158015610215573d6000803e3d6000fd5b5060008054906101000a900473ffffffffffffffffffffffffffffffffffffffff1673ffffffffffffffffffffffffffffffffffffffff1663a9059cbb85856040518363ffffffff1660e01b81526004016102719291906106ac565b602060405180830381600087803b15801561028b57600080fd5b505af115801561029f573d6000803e3d6000fd5b505050506040513d601f19601f820116820180604052508101906102c391906105d5565b5050505050565b6000600260009054906101000a900473ffffffffffffffffffffffffffffffffffffffff16905090565b60008060009054906101000a900473ffffffffffffffffffffffffffffffffffffffff1673ffffffffffffffffffffffffffffffffffffffff166370a08231836040518263ffffffff1660e01b81526004016103509190610691565b60206040518083038186803b15801561036857600080fd5b505afa15801561037c573d6000803e3d6000fd5b505050506040513d601f19601f820116820180604052508101906103a09190610627565b9050919050565b60008060009054906101000a900473ffffffffffffffffffffffffffffffffffffffff1673ffffffffffffffffffffffffffffffffffffffff166318160ddd6040518163ffffffff1660e01b815260040160206040518083038186803b15801561041057600080fd5b505afa158015610424573d6000803e3d6000fd5b505050506040513d601f19601f820116820180604052508101906104489190610627565b905090565b60008054906101000a900473ffffffffffffffffffffffffffffffffffffffff1673ffffffffffffffffffffffffffffffffffffffff1663b839b9ff600260009054906101000a900473ffffffffffffffffffffffffffffffffffffffff16836040518363ffffffff1660e01b81526004016104ca9291906106ac565b600060405180830381600087803b1580156104e457600080fd5b505af11580156104f8573d6000803e3d6000fd5b5050505050565b6000670de0b6b3a7640000826105159190610721565b9050919050565b60008135905061052b8161084f565b92915050565b60008151905061054081610866565b92915050565b6000813590506105558161087d565b92915050565b60008151905061056a8161087d565b92915050565b60006020828403121561058257600080fd5b60006105908482850161051c565b91505092915050565b600080604083850312156105ac57600080fd5b60006105ba8582860161051c565b92505060206105cb85828601610546565b9150509250929050565b6000602082840312156105e757600080fd5b60006105f584828501610531565b91505092915050565b60006020828403121561061057600080fd5b600061061e84828501610546565b91505092915050565b60006020828403121561063957600080fd5b60006106478482850161055b565b91505092915050565b610659816107af565b82525050565b600061066c600f83610710565b915061067782610826565b602082019050919050565b61068b816107ed565b82525050565b60006020820190506106a66000830184610650565b92915050565b60006040820190506106c16000830185610650565b6106ce6020830184610682565b9392505050565b600060208201905081810360008301526106ee8161065f565b9050919050565b600060208201905061070a6000830184610682565b92915050565b600082825260208201905092915050565b600061072c826107ed565b9150610737836107ed565b9250817fffffffffffffffffffffffffffffffffffffffffffffffffffffffffffffffff04831182151516156107705761076f6107f7565b5b828202905092915050565b6000610786826107ed565b9150610791836107ed565b9250828210156107a4576107a36107f7565b5b828203905092915050565b60006107ba826107cd565b9050919050565b60008115159050919050565b600073ffffffffffffffffffffffffffffffffffffffff82169050919050565b6000819050919050565b7f4e487b7100000000000000000000000000000000000000000000000000000000600052601160045260246000fd5b7f427579206d6f726520746f6b656e730000000000000000000000000000000000600082015250565b610858816107af565b811461086357600080fd5b50565b61086f816107c1565b811461087a57600080fd5b50565b610886816107ed565b811461089157600080fd5b5056fea26469706673582212203c7c3a0c9160dab56899442b5b4c66a4535585a1884ecc56361c83bca995925d64736f6c6343000804003360806040523480156200001157600080fd5b50604051620015cf380380620015cf833981810160405281019062000037919062000193565b81600390805190602001906200004f92919062000071565b5080600490805190602001906200006892919062000071565b50505062000376565b8280546200007f906200029b565b90600052602060002090601f016020900481019282620000a35760008555620000ef565b82601f10620000be57805160ff1916838001178555620000ef565b82800160010185558215620000ef579182015b82811115620000ee578251825591602001919060010190620000d1565b5b509050620000fe919062000102565b5090565b5b808211156200011d57600081600090555060010162000103565b5090565b60006200013862000132846200022f565b62000206565b9050828152602081018484840111156200015157600080fd5b6200015e84828562000265565b509392505050565b600082601f8301126200017857600080fd5b81516200018a84826020860162000121565b91505092915050565b60008060408385031215620001a757600080fd5b600083015167ffffffffffffffff811115620001c257600080fd5b620001d08582860162000166565b925050602083015167ffffffffffffffff811115620001ee57600080fd5b620001fc8582860162000166565b9150509250929050565b60006200021262000225565b9050620002208282620002d1565b919050565b6000604051905090565b600067ffffffffffffffff8211156200024d576200024c62000336565b5b620002588262000365565b9050602081019050919050565b60005b838110156200028557808201518184015260208101905062000268565b8381111562000295576000848401525b50505050565b60006002820490506001821680620002b457607f821691505b60208210811415620002cb57620002ca62000307565b5b50919050565b620002dc8262000365565b810181811067ffffffffffffffff82111715620002fe57620002fd62000336565b5b80604052505050565b7f4e487b7100000000000000000000000000000000000000000000000000000000600052602260045260246000fd5b7f4e487b7100000000000000000000000000000000000000000000000000000000600052604160045260246000fd5b6000601f19601f8301169050919050565b61124980620003866000396000f3fe608060405234801561001057600080fd5b506004361061009e5760003560e01c806370a082311161006657806370a082311461015d57806395d89b411461018d578063a9059cbb146101ab578063b839b9ff146101db578063dd62ed3e146101f75761009e565b806306fdde03146100a3578063095ea7b3146100c157806318160ddd146100f157806323b872dd1461010f578063313ce5671461013f575b600080fd5b6100ab610227565b6040516100b89190610d35565b60405180910390f35b6100db60048036038101906100d69190610b83565b6102b9565b6040516100e89190610d1a565b60405180910390f35b6100f96102d5565b6040516101069190610e37565b60405180910390f35b61012960048036038101906101249190610b34565b6102df565b6040516101369190610d1a565b60405180910390f35b610147610307565b6040516101549190610e52565b60405180910390f35b61017760048036038101906101729190610acf565b610310565b6040516101849190610e37565b60405180910390f35b610195610358565b6040516101a29190610d35565b60405180910390f35b6101c560048036038101906101c09190610b83565b6103ea565b6040516101d29190610d1a565b60405180910390f35b6101f560048036038101906101f09190610b83565b610406565b005b610211600480360381019061020c9190610af8565b610414565b60405161021e9190610e37565b60405180910390f35b60606003805461023690610f67565b80601f016020809104026020016040519081016040528092919081815260200182805461026290610f67565b80156102af5780601f10610284576101008083540402835291602001916102af565b820191906000526020600020905b81548152906001019060200180831161029257829003601f168201915b5050505050905090565b6000803390506102ca81858561049b565b600191505092915050565b6000600254905090565b6000803390506102f0858285610666565b6102fb8585856106f2565b60019150509392505050565b60006012905090565b60008060008373ffffffffffffffffffffffffffffffffffffffff1673ffffffffffffffffffffffffffffffffffffffff168152602001908152602001600020549050919050565b60606004805461036790610f67565b80601f016020809104026020016040519081016040528092919081815260200182805461039390610f67565b80156103e05780601f106103b5576101008083540402835291602001916103e0565b820191906000526020600020905b8154815290600101906020018083116103c357829003601f168201915b5050505050905090565b6000803390506103fb8185856106f2565b600191505092915050565b610410828261095d565b5050565b6000600160008473ffffffffffffffffffffffffffffffffffffffff1673ffffffffffffffffffffffffffffffffffffffff16815260200190815260200160002060008373ffffffffffffffffffffffffffffffffffffffff1673ffffffffffffffffffffffffffffffffffffffff16815260200190815260200160002054905092915050565b600073ffffffffffffffffffffffffffffffffffffffff168373ffffffffffffffffffffffffffffffffffffffff16141561050b576040517f08c379a000000000000000000000000000000000000000000000000000000000815260040161050290610e17565b60405180910390fd5b600073ffffffffffffffffffffffffffffffffffffffff168273ffffffffffffffffffffffffffffffffffffffff16141561057b576040517f08c379a000000000000000000000000000000000000000000000000000000000815260040161057290610dd7565b60405180910390fd5b80600160008573ffffffffffffffffffffffffffffffffffffffff1673ffffffffffffffffffffffffffffffffffffffff16815260200190815260200160002060008473ffffffffffffffffffffffffffffffffffffffff1673ffffffffffffffffffffffffffffffffffffffff168152602001908152602001600020819055508173ffffffffffffffffffffffffffffffffffffffff168373ffffffffffffffffffffffffffffffffffffffff167f8c5be1e5ebec7d5bd14f71427d1e84f3dd0314c0f7b2291e5b200ac8c7c3b925836040516106599190610e37565b60405180910390a3505050565b60006106728484610414565b90507fffffffffffffffffffffffffffffffffffffffffffffffffffffffffffffffff81146106ec57818110156106de576040517f08c379a00000000000000000000000000000000000000000000000000000000081526004016106d590610d77565b60405180910390fd5b6106eb848484840361049b565b5b50505050565b600073ffffffffffffffffffffffffffffffffffffffff168373ffffffffffffffffffffffffffffffffffffffff161415610762576040517f08c379a000000000000000000000000000000000000000000000000000000000815260040161075990610df7565b60405180910390fd5b600073ffffffffffffffffffffffffffffffffffffffff168273ffffffffffffffffffffffffffffffffffffffff1614156107d2576040517f08c379a00000000000000000000000000000000000000000000000000000000081526004016107c990610d57565b60405180910390fd5b60008060008573ffffffffffffffffffffffffffffffffffffffff1673ffffffffffffffffffffffffffffffffffffffff16815260200190815260200160002054905081811015610858576040517f08c379a000000000000000000000000000000000000000000000000000000000815260040161084f90610d97565b60405180910390fd5b8181036000808673ffffffffffffffffffffffffffffffffffffffff1673ffffffffffffffffffffffffffffffffffffffff16815260200190815260200160002081905550816000808573ffffffffffffffffffffffffffffffffffffffff1673ffffffffffffffffffffffffffffffffffffffff16815260200190815260200160002060008282546108eb9190610e89565b925050819055508273ffffffffffffffffffffffffffffffffffffffff168473ffffffffffffffffffffffffffffffffffffffff167fddf252ad1be2c89b69c2b068fc378daa952ba7f163c4a11628f55a4df523b3ef8460405161094f9190610e37565b60405180910390a350505050565b600073ffffffffffffffffffffffffffffffffffffffff168273ffffffffffffffffffffffffffffffffffffffff1614156109cd576040517f08c379a00000000000000000000000000000000000000000000000000000000081526004016109c490610db7565b60405180910390fd5b80600260008282546109df9190610e89565b92505081905550806000808473ffffffffffffffffffffffffffffffffffffffff1673ffffffffffffffffffffffffffffffffffffffff1681526020019081526020016000206000828254610a349190610e89565b925050819055508173ffffffffffffffffffffffffffffffffffffffff16600073ffffffffffffffffffffffffffffffffffffffff167fddf252ad1be2c89b69c2b068fc378daa952ba7f163c4a11628f55a4df523b3ef83604051610a999190610e37565b60405180910390a35050565b600081359050610ab4816111e5565b92915050565b600081359050610ac9816111fc565b92915050565b600060208284031215610ae157600080fd5b6000610aef84828501610aa5565b91505092915050565b60008060408385031215610b0b57600080fd5b6000610b1985828601610aa5565b9250506020610b2a85828601610aa5565b9150509250929050565b600080600060608486031215610b4957600080fd5b6000610b5786828701610aa5565b9350506020610b6886828701610aa5565b9250506040610b7986828701610aba565b9150509250925092565b60008060408385031215610b9657600080fd5b6000610ba485828601610aa5565b9250506020610bb585828601610aba565b9150509250929050565b610bc881610ef1565b82525050565b6000610bd982610e6d565b610be38185610e78565b9350610bf3818560208601610f34565b610bfc81610ff7565b840191505092915050565b6000610c14602483610e78565b9150610c1f82611008565b604082019050919050565b6000610c37601d83610e78565b9150610c4282611057565b602082019050919050565b6000610c5a602483610e78565b9150610c6582611080565b604082019050919050565b6000610c7d601d83610e78565b9150610c88826110cf565b602082019050919050565b6000610ca0602383610e78565b9150610cab826110f8565b604082019050919050565b6000610cc3602683610e78565b9150610cce82611147565b604082019050919050565b6000610ce6602583610e78565b9150610cf182611196565b604082019050919050565b610d0581610f1d565b82525050565b610d1481610f27565b82525050565b6000602082019050610d2f6000830184610bbf565b92915050565b60006020820190508181036000830152610d4f8184610bce565b905092915050565b60006020820190508181036000830152610d7081610c07565b9050919050565b60006020820190508181036000830152610d9081610c2a565b9050919050565b60006020820190508181036000830152610db081610c4d565b9050919050565b60006020820190508181036000830152610dd081610c70565b9050919050565b60006020820190508181036000830152610df081610c93565b9050919050565b60006020820190508181036000830152610e1081610cb6565b9050919050565b60006020820190508181036000830152610e3081610cd9565b9050919050565b6000602082019050610e4c6000830184610cfc565b92915050565b6000602082019050610e676000830184610d0b565b92915050565b600081519050919050565b600082825260208201905092915050565b6000610e9482610f1d565b9150610e9f83610f1d565b9250827fffffffffffffffffffffffffffffffffffffffffffffffffffffffffffffffff03821115610ed457610ed3610f99565b5b828201905092915050565b6000610eea82610efd565b9050919050565b60008115159050919050565b600073ffffffffffffffffffffffffffffffffffffffff82169050919050565b6000819050919050565b600060ff82169050919050565b60005b83811015610f52578082015181840152602081019050610f37565b83811115610f61576000848401525b50505050565b60006002820490506001821680610f7f57607f821691505b60208210811415610f9357610f92610fc8565b5b50919050565b7f4e487b7100000000000000000000000000000000000000000000000000000000600052601160045260246000fd5b7f4e487b7100000000000000000000000000000000000000000000000000000000600052602260045260246000fd5b6000601f19601f8301169050919050565b7f45524332303a207472616e7366657220746f20746865207a65726f206164647260008201527f6573732e00000000000000000000000000000000000000000000000000000000602082015250565b7f45524332303a20696e73756666696369656e7420616c6c6f77616e6365000000600082015250565b7f4552433a207472616e7366657220616d6f756e7420657863656564732062616c60008201527f616e636500000000000000000000000000000000000000000000000000000000602082015250565b7f45524332303a204d696e742066726f6d207a65726f2061646472657373000000600082015250565b7f45524332303a20617070726f766520746f20746865207a65726f20616464726560008201527f73732e0000000000000000000000000000000000000000000000000000000000602082015250565b7f45524332303a207472616e736665722066726f6d20746865207a65726f20616460008201527f64726573732e0000000000000000000000000000000000000000000000000000602082015250565b7f45524332303a20617070726f76652066726f6d20746865207a65726f2061646460008201527f726573732e000000000000000000000000000000000000000000000000000000602082015250565b6111ee81610edf565b81146111f957600080fd5b50565b61120581610f1d565b811461121057600080fd5b5056fea26469706673582212204bef7ed435b41e01e2f24d0f6f1fb7944a236fd9059a5b425770911ad757a04364736f6c63430008040033",
  "linkReferences": {},
  "deployedLinkReferences": {}
}